:020000040800F2
:10000000F0B8002029030008D16200081F50000842
:10001000CD620008311100088D9C0008000000002E
:10002000000000000000000000000000690200085D
:100030009F1A000800000000C5020008F1930008A4
:100040004303000843030008430300084303000878
:100050004303000843030008A11A000843030008F3
:1000600043030008AB1A0008B51A00084303000850
:100070004303000843030008430300084303000848
:100080004303000843030008430300084303000838
:10009000351100084303000843030008BF1A000895
:1000A0004303000843030008430300084303000818
:1000B0004303000843030008430300084303000808
:1000C00043030008430300084303000843030008F8
:1000D000430300083D9B0008430300084D9B0008B4
:1000E00043030008430300084303000843030008D8
:1000F00043030008430300084303000843030008C8
:1001000043030008430300084303000843030008B7
:1001100043030008430300084303000843030008A7
:100120004303000843030008551100084303000877
:100130004303000843030008430300084303000887
:100140004511000843030008430300084303000867
:100150004303000843030008430300087D9C000894
:100160004303000843030008430300084303000857
:100170004303000843030008430300080000000095
:10018000430300084303000800F002F800F05CF8A5
:100190000AA090E8000C82448344AAF10107DA45E2
:1001A00001D100F051F8AFF2090EBAE80F0013F0D8
:1001B000010F18BFFB1A43F00103184790320100EA
:1001C000B03201000A444FF0000C10F8013B13F06C
:1001D000070408BF10F8014B1D1108BF10F8015BA0
:1001E000641E05D010F8016B641E01F8016BF9D193
:1001F00013F0080F1EBF10F8014BAD1C0C1B09D1EA
:100200006D1E58BF01F801CBFAD505E014F8016B5B
:1002100001F8016B6D1EF9D59142D6D370470000ED
:100220000023002400250026103A28BF78C1FBD8FF
:10023000520728BF30C148BF0B6070471FB512F08E
:10024000B3F91FBD10B510BD00F090FA1146FFF7CD
:10025000F5FF0EF0F9FC00F0AEFA03B4FFF7F2FF81
:1002600003BC00F011FB00002C4B19680868B0E8D3
:10027000F04F80F30988BFF36F8F4FF0000080F3D9
:10028000118870470000000008480068006880F38B
:1002900008884FF0000080F3148862B661B6BFF39F
:1002A0004F8FBFF36F8F00DF00BF00BF08ED00E08E
:1002B000DFF80C00016841F470010160704700BF75
:1002C00088ED00E0EFF30980BFF36F8F134B1A68DE
:1002D0001EF0100F08BF20ED108A20E9F04F1060CB
:1002E00009B44FF0500080F31188BFF34F8FBFF374
:1002F0006F8F0FF089FF4FF0000080F3118809BC69
:1003000019680868B0E8F04F1EF0100F08BFB0EC95
:10031000108A80F30988BFF36F8F7047AC0100200B
:10032000EFF30580704700000948804709480047FF
:10033000FEE7FEE7FEE7FEE7FEE7FEE7FEE7FEE795
:10034000FEE7FEE704480549054A064B70470000F2
:10035000B994000889010008F0780020F0B8002066
:10036000F0980020F09800209FED1A1AF5EE000A90
:1003700040EE010ABDEEE00AF5EEC00A10EE100AEA
:10038000F1EE10FA38BF401E00EE100A1349F7EEE6
:10039000001AB8EEC00A30EEC00ADFED0F0A20EEF8
:1003A000200AFCEEC00A10EE900AC0F3080000EE2E
:1003B000900A01EB8000F8EE600A90ED011A70EEF1
:1003C000600A90ED000A71EEE01A21EE800A00EE5C
:1003D000810A704783F9223E00000044602A010828
:1003E000DFED190AB5EEC00A60EE200ABDEEE01A94
:1003F00011EE100AF1EE10FA38BF401E00EE100A9E
:100400001349F7EE001AB8EEC00A30EEC00ADFED6D
:100410000F0A60EE200ABCEEE00A10EE100AC0F3EC
:10042000080000EE100A01EB8000B8EE400A90EDE3
:10043000011A70EEC00A90ED000A71EEE01A21EE8A
:10044000800A00EE810A704783F9223E00000044D2
:10045000602A010853EA020C00F069802DE9F04B94
:100460004FF00006002B1FBFB3FA83F503FA05F423
:1004700024FA05F65E4012BF1643B2FA82F502FA7C
:1004800005F4C5F120051EBF22FA05FC44EA0C0460
:10049000203556EA044C4FEA144418BF641C4FF050
:1004A00000084FF00009904271EB030C39D300298A
:1004B00019BFB1FA81F701FA07F6B0FA80F700FA2E
:1004C00007F6C7F120071EBF20FA07FC46EA0C0614
:1004D0002037B6FBF4FCA7EB0507103F07F01F0B16
:1004E000CBF120060CFA0BFB2CFA06F644BFB34600
:1004F0000026202FA4BF5E464FF0000B5BEA060CDF
:1005000008BF4FF0010B19EB0B09ABFB027C48EB6A
:100510000608C01B06FB02CC0BFB03CC71EB0C01E5
:10052000C1E70B46024641464846BDE8F08B13B58D
:100530004FF000004FF00001AFF30080BDE81C4019
:10054000704710B5431C02E010F8011B71B1810720
:10055000FAD14FF0013202C88C1A8C4314EAC2114E
:10056000F9D0C01A0A0603D0C01E10BDC01A10BDB3
:100570000A0401D0801E10BD0902FCD0401E10BD2F
:10058000032A40F2308010F0030C00F0158011F8BF
:10059000013BBCF1020F624498BF11F801CB00F897
:1005A000013B38BF11F8013BA2F1040298BF00F8EB
:1005B00001CB38BF00F8013B11F0030300F02580A8
:1005C000083AC0F0088051F8043B083A51F804CBCF
:1005D000A0E80810F5E7121D5CBF51F8043B40F895
:1005E000043BAFF30080D20724BF11F8013B11F8A0
:1005F00001CB48BF11F8012B24BF00F8013B00F8E4
:1006000001CB48BF00F8012B704710B5203AC0F06D
:100610000B80B1E81850203AA0E81850B1E8185003
:10062000A0E81850BFF4F5AF5FEA027C24BFB1E840
:100630001850A0E8185044BF18C918C0BDE81040B1
:100640005FEA827C24BF51F8043B40F8043B08BFBA
:100650007047D20728BF31F8023B48BF11F8012B81
:1006600028BF20F8023B48BF00F8012B704702F07A
:10067000FF0343EA032242EA024200F037B84FF098
:10068000000200B5134694469646203922BFA0E8E2
:100690000C50A0E80C50B1F12001BFF4F7AF0907EE
:1006A00028BFA0E80C5048BF0CC05DF804EB8900DF
:1006B00028BF40F8042B08BF704748BF20F8022B22
:1006C00011F0804F18BF00F8012B7047704770473A
:1006D000704710B500F02AF8006810BD10B5044648
:1006E00000F024F8046010BD4FF000020429C0F0AF
:1006F000128010F0030C3FF4C4AFCCF1040CBCF139
:10070000020F18BF00F8012BA8BF20F8022BA1EBA5
:100710000C01FFF7B6BF5FEAC17C24BF00F8012BD4
:1007200000F8012B48BF00F8012B704700487047C4
:10073000907800201FB584B000200A9C06AB04AA64
:1007400002A90094AFF3008018B1DDE9020108B0FE
:1007500010BD0348204000F034F800200146F6E7C1
:100760000000207C00487047907800207546FFF715
:10077000F9FFAE4605006946534620F0070085465E
:1007800018B020B5FFF7DEFDBDE820404FF00006B1
:100790004FF000074FF000084FF0000B21F0070169
:1007A000AC46ACE8C009ACE8C009ACE8C009ACE8AC
:1007B000C0098D4670470446AFF300802046FFF71E
:1007C0004CFD10B500F00AF8BDE81040AFF3008012
:1007D000002801D000F058B87047000010B502287A
:1007E00003D0410103D50DA112E0002010BD01018D
:1007F00001D50FA10CE0C10001D511A108E08100D5
:1008000001D512A104E0400001D513A100E00021B0
:1008100015A000F03FF8012010BD0000496E766180
:100820006C6964204F7065726174696F6E000000BE
:10083000446976696465204279205A65726F0000C8
:100840004F766572666C6F7700000000556E6465C8
:1008500072666C6F77000000496E65786163742082
:10086000526573756C7400005349474650453A20F1
:1008700041726974686D6574696320657863657039
:1008800074696F6E3A20000001491820ABBEFEE784
:100890002600020070B505460C460A2000E06D1CDB
:1008A00000F011F835B128780028F8D102E0641C76
:1008B00000F009F814B120780028F8D1BDE87040A4
:1008C0000A20AFF3008008B569468DF800000320C8
:1008D000ABBE08BD704710B52DED028BB0EE408A5F
:1008E000B0EE480A09F000FABDEC028B10BD10B55D
:1008F0002DED028BB0EE408AF0EE608AF0EE680AD1
:10090000B0EE480A09F086FABDEC028B10BD10B5B6
:100910002DED028BB0EE408AB0EE480AFFF724FDC1
:10092000BDEC028B10BDF0EE400AF5EEC00AF1EE10
:1009300010FA02DDB0EE600A7047B1EE600AFBE724
:1009400018B19FED020A80ED000A70470000000018
:1009500018B1B3EE060A80ED000A704770B52DEDB0
:100960000C8B84B006460C4615469FED990AF0EEB6
:10097000408A9FED970AB0EE409A9FED950AF0EEFF
:1009800040BA9FED930AF0EE409A9FED910AB0EEC7
:1009900040AA0EB104B11DB904B0BDEC0C8B70BD02
:1009A0008C48FFF7CDFF8C48FFF7D2FF8A48D0ED87
:1009B000000A9FED8A1A60EE810AB0EE600A00F02C
:1009C0002DF9F0EE408A28EEA80AF0EE408A82481F
:1009D000D0ED000AB0EE001A60EE810A9FED7F1A9A
:1009E00060EE810AB0EE600A00F018F9B0EE409AAD
:1009F00029EE090AB0EE409ADFED790AB7EE000A57
:100A000000EEA80ADFED770A00EEC90ADFED760AEC
:100A100020EE200A754880ED000A6E4890ED000A2D
:100A2000DFED730A80EE201AB7EE000A31EE000AFD
:100A300020EE000A6D48D0ED000A80EE801A6D4865
:100A400080ED001A94ED000AB5EEC00AF1EE10FA3E
:100A50000DD194ED010AB5EEC00AF1EE10FA06D1FF
:100A600094ED020AB5EEC00AF1EE10FA46D09FED01
:100A7000580AB0EE408A0020019002900390D4ED15
:100A8000000A60EEA00A94ED011AD4ED011A41EEBD
:100A9000210A94ED021AD4ED021A41EE210AB0EEB9
:100AA000600A00F0A9F8B0EE408A94ED000A20EE4A
:100AB000080A8DED010A94ED010A20EE080A8DED79
:100AC000020A94ED020A20EE080A8DED030ADDED1C
:100AD000010AF1EE600AB0EE600AFFF7FCFEF0EEEC
:100AE000409A9DED031AF0EE410A9DED021AB0EE18
:100AF000410AFFF7FCFEB0EE40AA07E09FED340A82
:100B0000F0EE409A9FED320AB0EE40AA95ED000A51
:100B1000B5EEC00AF1EE10FA0DD195ED010AB5EE71
:100B2000C00AF1EE10FA06D195ED020AB5EEC00A40
:100B3000F1EE10FA3CD0B0EE690A00F06FF8B0EEBA
:100B4000408AB0EE690AFFF7E2FEB0EE40DAB0EE9E
:100B50004A0A00F063F8F0EE40AAB0EE4A0AFFF746
:100B6000D6FEB0EE40BA28EE2A0AD5ED010A20EEF4
:100B7000200AD5ED000A0DEE200A68EE0B0A95ED6D
:100B8000021A00EE810AB0EE40CA95ED010A20EE8D
:100B90000B0AD5ED020A0AEEE00AF0EE40CAF0EECA
:100BA0006C0AB0EE4C0AFFF7A2FEF0EE40BA03E08A
:100BB0009FED070AF0EE40BAB0EE4A1AF0EE690A6D
:100BC000B0EE6B0A30460AF0D7FF00BFE4E6000043
:100BD00000000000280200202C02002035FA8E3C84
:100BE000C1BFAD3B9DF8C5362F7C1C4130020020B3
:100BF000506CC24A3402002010B52DED028BB0EECD
:100C0000408AB0EE480A0AF05CF9B7EE001AC1EE6D
:100C1000000AB0EE600ABDEC028B10BD10B52DEDE0
:100C2000028BB0EE408AB0EE480AFFF7D9FBBDEC6C
:100C3000028B10BD2DE9F0412DED028B9AB00546D7
:100C4000B0EE408A0E46174698460020179018903E
:100C500019901490159016904DB146B13FB1B8F16E
:100C6000000F04D0B5EEC08AF1EE10FA05D10020D5
:100C70001AB0BDEC028BBDE8F08196ED000A8DED57
:100C8000170A96ED010A8DED180A96ED020A8DED10
:100C9000190A97ED000A8DED140A97ED010A8DED02
:100CA000150A97ED020A8DED160A17AA14A928460F
:100CB0000AF0B4FD402104A8FFF7E1FC00200090F9
:100CC000019002900390002417A904A80EF0FAFFE7
:100CD00000BF30E004A800EB041090ED000AD5ED51
:100CE000000A20EE200A04A800EB0410D0ED010A4F
:100CF00095ED011A00EE810A04A800EB0410D0ED76
:100D0000020A95ED021A00EE810A04A800EB041015
:100D1000D0ED030A95ED031A00EE810A20EE080AD1
:100D2000F0EE000A80EE201A684600EB840080EDA9
:100D3000001A601CC4B2042CCCDB002410E005EBCC
:100D4000840090ED000A684600EB8400D0ED000AB4
:100D500030EE200A05EB840080ED000A601CC4B26E
:100D6000042CECDB28460EF0E3FD012080E70000B8
:100D700010B501221021024801F09AFF10BD0000B9
:100D80000000024010B500221021024801F090FF3F
:100D900010BD0000000002407047000010B50122A5
:100DA0001146024801F084FF10BD0000000402401B
:100DB00010B500220121024801F07AFF10BD0000A9
:100DC0000004024010B543781B021BB20478234391
:100DD00000EE103AB8EEC01A1C4BD3ED001A21EE0B
:100DE000211A81ED001AC3781B021BB284782343B9
:100DF00000EE103AB8EEC01A144BD3ED001A21EEF3
:100E0000211A81ED011A43791B021BB20479234395
:100E100000EE103AB8EEC01A0C4BD3ED001A21EEDA
:100E2000211A81ED021A037A1B04C47943EA0423D0
:100E30008479234300EE903AB8EE601ADFED041A8D
:100E400021EE211A82ED001A10BD0000740100206D
:100E500000401C42704710B5044620460EF020F8B2
:100E600010BD10B5044620460CF0A2F910BD0000DC
:100E70004278120212B203781A4300EE102AF8EEFA
:100E8000C00A144A92ED001A60EE810AC1ED000A10
:100E9000C278120212B283781A4300EE102AF8EEDA
:100EA000C00A0C4A92ED001A60EE810AC1ED010AF7
:100EB0004279120212B203791A4300EE102AF8EEB8
:100EC000C00A044A92ED001A60EE810AC1ED020ADE
:100ED000704700007801002010B50024FFF75CFF88
:100EE000FFF7B8FF0AF098FF10B144F0800402E069
:100EF0000AF0F8FE04430BF087F910B144F0400407
:100F000002E00BF007F90443204610BD2DE9FC4137
:100F100005460E461746002000900190FFF732FF6D
:100F2000922000F0D1F806226946122000F0ACF8B9
:100F3000FFF71EFF9DF80100000200B29DF80010AF
:100F400040EA010400EE104AB8EEC00A4C48D0ED69
:100F5000000A20EE200A86ED000A9DF80300000238
:100F600000B29DF8021040EA010400EE104AB8EE0B
:100F7000C00A4348D0ED000A20EE200A86ED010A9F
:100F80009DF80500000200B29DF8041040EA01043B
:100F900000EE104AB8EEC00A3948D0ED000A20EE43
:100FA000200A86ED020AFFF703FF082269460020A7
:100FB00000F06AF8FFF7F2FE9DF800000F2838D124
:100FC0009DF80300000200B29DF8021040EA0104FF
:100FD00000EE104AB8EEC00A2A48D0ED000A20EE12
:100FE000200A85ED000A9DF80500000200B29DF878
:100FF000041040EA010400EE104AB8EEC00A21488D
:10100000D0ED000A20EE200A85ED010A9DF80700C8
:10101000000200B29DF8061040EA010400EE104AFA
:10102000B8EEC00A1748D0ED000A20EE200A85ED80
:10103000020AFFF7A7FEA22000F046F80222694646
:10104000222000F021F8FFF793FE9DF80000C00079
:101050009DF8011040EA6114B4F5806F02DBA4F53D
:10106000006004B200EE104AF8EEC00AB4EE001AB6
:10107000B3EE070A00EE810A87ED000ABDE8FC81A5
:10108000740100207801002070B506460C46154614
:1010900046F0800000F018F806E0552000F014F843
:1010A0002070641C681EC5B2002DF6D170BD70B5ED
:1010B00004460D4644F0800000F006F8552000F08C
:1010C00003F8287070BD000001B582B04FF47A704B
:1010D000012301AA02A90090024802F0BDFF9DF879
:1010E00004000EBDA409002010B502461378DB00F1
:1010F000547843EA6410B0F5806F02DBA0F500631A
:1011000018B200EE100AF8EEC00AB4EE001AB3EE00
:10111000070A00EE810A81ED000A10BD70B5054690
:101120000C462846FFF7D0FF2046FFF7CDFF70BDE5
:1011300000BFFEE710B5024800F0C7FF10BD000079
:10114000E008002010B5024800F0BFFF10BD00000D
:101150000809002010B5FE48C06C0068FD498842AF
:1011600076D9FC4854380068F949C96C0968FA4ACC
:10117000914201D1202169E0F549C96C0968F54A1D
:10118000483A914201D1202160E0F149C96C0968D7
:10119000F14A6032914201D1202157E0EC49C96CFB
:1011A0000968EC4A1832914201D120214EE0E84909
:1011B000C96C0968E84A1832914201D1C91445E066
:1011C000E349C96C0968E34A303A914201D1C91434
:1011D0003CE0DF49C96C0968DF4A7832914201D1AD
:1011E000C91433E0DA49C96C0968DA4A30329142ED
:1011F00001D1C9142AE0D649C96C0968D64A3032EF
:10120000914202D14FF4001120E0D149C96C096824
:10121000D04A183A914202D14FF4001116E0CC495D
:10122000C96C0968CC4A9032914202D14FF4001146
:101230000CE0C749C96C0968C64A4832914203D1DB
:101240004FF4001102E003E04FF00061084070E14C
:10125000BF48C06C0068C049A831884276D9BD48F3
:1012600058380068BA49C96C0968BB4A914201D133
:10127000202169E0B649C96C0968B64A483A9142EA
:1012800001D1202160E0B249C96C0968B24A6032DC
:10129000914201D1202157E0AD49C96C0968AD4A9E
:1012A0001832914201D120214EE0A949C96C096848
:1012B000A94A1832914201D1C91445E0A449C96C28
:1012C0000968A44A303A914201D1C9143CE0A049CE
:1012D000C96C0968A04A7832914201D1C91433E03F
:1012E0009B49C96C09689B4A3032914201D1C914AB
:1012F0002AE09749C96C0968974A3032914202D175
:101300004FF4001120E09249C96C0968914A183ADB
:10131000914202D14FF4001116E08D49C96C096861
:101320008D4A9032914202D14FF400110CE088496D
:10133000C96C0968874A4832914203D14FF40011C1
:1013400002E003E04FF000610840F2E08048C06C2A
:10135000006881494831884276D97F481038406812
:101360007B49C96C09687C4A914201D1202169E01E
:101370007749C96C0968774A483A914201D12021DE
:1013800060E07349C96C0968734A6032914201D1C7
:10139000202157E06E49C96C09686E4A18329142A3
:1013A00001D120214EE06A49C96C09686A4A1832A5
:1013B000914201D1C91445E06549C96C0968654A83
:1013C000303A914201D1C9143CE06149C96C0968C5
:1013D000614A7832914201D1C91433E05C49C96C49
:1013E00009685C4A3032914201D1C9142AE0584957
:1013F000C96C0968584A3032914202D14FF4001149
:1014000020E05349C96C0968524A183A914202D106
:101410004FF4001116E04E49C96C09684E4A9032EB
:10142000914202D14FF400110CE04949C96C09689E
:10143000484A4832914203D14FF4001102E003E0E0
:101440004FF00061084074E043481038006840499C
:10145000C96C0968404A914201D1202168E03C49A9
:10146000C96C09683B4A483A914201D120215FE0AA
:101470003749C96C0968384A6032914201D120214C
:1014800056E03349C96C0968324A1832914201D199
:1014900020214DE02E49C96C09682F4A183291422B
:1014A00001D1C91444E02A49C96C0968294A303A73
:1014B000914201D1C9143BE02549C96C0968264A0B
:1014C0007832914201D1C91432E02149C96C0968CE
:1014D000204A3032914201D1C91429E01C49C96C1B
:1014E00009681D4A3032914202D14FF400111FE0C9
:1014F0001749C96C0968174A183A914202D14FF44A
:10150000001115E01249C96C0968134A90329142E2
:1015100002D14FF400110BE00D49C96C09680D4A66
:101520004832914202D14FF4001101E04FF00061C6
:10153000084000286FD00648C06C00680549884202
:101540007BD90348C06C00680349884208D105E094
:10155000A40900205864024010600240202068E086
:10156000FE48C06C0068FE49884201D1202060E03E
:10157000FA48C06C0068FB49884201D1202058E03D
:10158000F648C06C0068F6496031884201D12020DD
:101590004FE0F248C06C0068F2494839884201D1F6
:1015A000C01446E0ED48C06C0068ED49183188422F
:1015B00001D1C0143DE0E948C06C0068E949183128
:1015C000884201D1C01434E0E448C06C0068E449AA
:1015D0007831884201D1C0142BE0E048C06C00682B
:1015E000E0493039884202D14FF4001021E0DB4855
:1015F000C06C0068DA493031884202D14FF40010E3
:1016000017E0D648C06C0068D6493031884204D112
:101610004FF400100DE0DFE10FE0D048C06C00682F
:10162000CF499031884202D14FF4001001E04FF0D1
:101630000060CB49091F08606AE1C848C06C0068B7
:10164000C8494831884274D9C448C06C0068C5494B
:101650006039884201D1202066E0C048C06C006833
:10166000BF49884201D120205EE0BC48C06C0068C0
:10167000BC49884201D1202056E0B848C06C0068BF
:10168000B7496031884201D120204DE0B348C06C99
:101690000068B4494839884201D1C01444E0AF48D9
:1016A000C06C0068AE491831884201D1C0143BE0DB
:1016B000AA48C06C0068AB491831884201D1C014F7
:1016C00032E0A648C06C0068A5497831884201D153
:1016D000C01429E0A148C06C0068A2493039884292
:1016E00002D14FF400101FE09C48C06C00689C4978
:1016F0003031884202D14FF4001015E09748C06C99
:10170000006898493031884202D14FF400100BE054
:101710009248C06C006892499031884202D14FF4DF
:10172000001001E04FF000608D4908390860EFE0DB
:10173000FFE78A48C06C00688A491839884274D922
:101740008648C06C006887496039884201D12020F2
:1017500066E08248C06C00688149884201D120203F
:101760005EE07E48C06C00687E49884201D120203E
:1017700056E07A48C06C006879496031884201D1EE
:1017800020204DE07548C06C006876494839884291
:1017900001D1C01444E07148C06C00687049183130
:1017A000884201D1C0143BE06C48C06C00686D49B0
:1017B0001831884201D1C01432E06848C06C00681A
:1017C00067497831884201D1C01429E06348C06C70
:1017D000006864493039884202D14FF400101FE09C
:1017E0005E48C06C00685E493031884202D14FF4D7
:1017F000001015E05948C06C00685A4930318842E1
:1018000002D14FF400100BE05448C06C00685449FA
:101810009031884202D14FF4001001E04FF0006097
:1018200050497039C86073E0FFE74C48C06C0068ED
:101830004C496039884201D1202066E04748C06C9D
:1018400000684749884201D120205EE04348C06CCF
:1018500000684449884201D1202056E03F48C06CCE
:1018600000683F496031884201D120204DE03B486B
:10187000C06C00683B494839884201D1C01444E03B
:101880003648C06C006836491831884201D1C0140E
:101890003BE03248C06C006832491831884201D1BF
:1018A000C01432E02D48C06C00682D497831884260
:1018B00001D1C01429E02948C06C00682949303999
:1018C000884202D14FF400101FE02448C06C006829
:1018D00023493031884202D14FF4001015E01F48EF
:1018E000C06C00681F493031884202D14FF40010AB
:1018F0000BE01A48C06C006819499031884202D147
:101900004FF4001001E04FF0006016497039886014
:101910001548007800F0020078B11348007820F0F4
:101920000200114908700846007840F00400087071
:10193000012211460D4801F0BBF90D48007800F076
:101940000200E0B10A48007820F00200084908705F
:101950000846007840F0040008700BE0A40900205D
:101960001064024070600240C50000200004024084
:10197000C600002001221021184801F099F91848EA
:10198000007800F0020078B11548007820F00200DD
:10199000134908700846007840F0040008700122DE
:1019A00010210E4801F084F90CF062F80D4800781F
:1019B00000F0040080B10B48007820F004000949D1
:1019C00008700846007840F0080008700648006873
:1019D00040F001000449086010BD00000000024012
:1019E000C7000020C5000020103C014001680A4BE0
:1019F000CAB2103AA3FB02321209084B9B5CC365C2
:101A0000032A04D96FF30901091D816502E06FF310
:101A100009018165806D7047ABAAAAAA4A2A01080C
:101A2000014600208A6A8B69002B0FD0B3F5005F56
:101A30001DD08AB3012A30D0022A2ED0032A04D125
:101A4000C96A11F0807F00D0012070471AB1012AC5
:101A500007D0022AF9D1C96A11F0807FF5D00120A0
:101A60007047C96AB1F1C07FFAD1012070475AB1FD
:101A7000012A0BD0022A07D0032AF7D1C96AB1F193
:101A8000C07FF3D10120704701207047C96A11F06F
:101A9000807FFAD001207047FFE701207047704730
:101AA00010B5012000F0F0FF10BD10B5082000F0C7
:101AB000EBFF10BD10B5102000F0E6FF10BD10B513
:101AC000202000F0E1FF10BD704700000022002937
:101AD00005D001291AD002291BD04FF440720E49BB
:101AE0000B6823F440730B600B681A430A600A68A2
:101AF00022F0F8020A600A68022343EAC000104399
:101B00000860086840F48030086070474FF48072C5
:101B1000E5E74FF40072E2E7103C02401448016828
:101B200011F4007F0FD0016821F400710160016899
:101B300041F400610160016821F400610160016805
:101B400041F400710160016811F4806F0FD00168E9
:101B500021F480610160016841F4805101600168F5
:101B600021F480510160016841F480610160704797
:101B7000003C024008490A6822F440720A600A6880
:101B800042F004020A600A684FF4803343EA0020FE
:101B90001043086070470000103C0240064A13687A
:101BA00023F44073136013681360136843F0010358
:101BB0001360017070470000103C02400B49D1F8DF
:101BC00000C02CF4407CC1F800C0D1F800C04CF437
:101BD000407CC1F800C0D1F800C04CF0010CC1F845
:101BE00000C00260BFF36F8F43607047103C02403B
:101BF000074A136823F440731360136843F4807337
:101C00001360136843F00103136001807047000004
:101C1000103C0240074A136823F4407313601368B2
:101C200043F400731360136843F001031360016011
:101C300070470000103C02401A49086810F0100F6D
:101C4000194805D0C26942F01002C26110220A6030
:101C50000A6812F0200F05D0C26942F00802C26182
:101C600020220A600A6812F0400F05D0C26942F0D3
:101C70000402C26140220A600A6812F0800F05D097
:101C8000C26942F00202C26180220A600A6812F050
:101C9000020F05D0C26942F02002C2610220086032
:101CA000704700000C3C02403016002070B504461E
:101CB00014490020C86101F003F80646124D286857
:101CC00010F4803F0ED0B4F1FF3F07D024B100F0F4
:101CD000F7FF801BA04201D9032070BD286810F4D3
:101CE000803FF0D1286810F0010F01D0012028605A
:101CF000286810F0F20F03D0FFF79EFF012070BD9F
:101D0000002070BD301600200C3C024090F82020CE
:101D1000012A07D0022A05D0416A41F4802141629C
:101D200001207047006842691143416100207047FB
:101D300070B490F82040D0F800C0DCF808C0012C46
:101D400008D0022C06D0416A41F48021416270BC67
:101D5000012070470CF080640CF000652C430CF0FF
:101D600080552C435FD0CCF3016CBCF1020F06D937
:101D7000416A41F40001416270BC012070470124B6
:101D800004FA0CF41C608B684FF4C0749BB1CD68EE
:101D900004EB0C162B434D6843EAC5030568AB51B1
:101DA0004FF4C273066803EB0C130D69F550097DFF
:101DB000012909D00DE00D88CB6804EB0C1643EA2D
:101DC00045530568AB51EBE70168CD5845F4807584
:101DD000CD501179D379557941EA036193791B0488
:101DE00043EA052319434FF4C675036805EB0C1548
:101DF00059511178D37841EA0361937852781B04E2
:101E000043EA022211434FF4C473026803EB0C133C
:101E1000D150006804EB0C11425842F001024250CC
:101E200070BC00207047416A41F40011416270BCEF
:101E30000120704790F82020012A07D0022A05D0FF
:101E4000416A41F480214162012070474248D0F844
:101E5000002242F00102C0F80022D0F8002222F451
:101E60007C52C0F80022D0F800224B6A42EA0322DA
:101E7000C0F800220A7D012302F01F0203FA02F2D9
:101E8000D0F81C329343C0F81C32CB69D3B9D0F8D8
:101E90000C329343C0F80C32B1F80CC04B686CF3B1
:101EA0001F43D1F814C000EBCC0CCCF84032B1F891
:101EB00008C00B686CF31F43D1F814C000EBCC0CC6
:101EC000CCF84432CB69012B1AD1D0F80C32134331
:101ED000C0F80C32B1F800C04B686CF31F43D1F866
:101EE00014C000EBCC0CCCF84032B1F808C0CB6881
:101EF0006CF31F43D1F814C000EBCC0CCCF8443287
:101F00008B697BB1D0F804321343C0F804320B69FB
:101F100073B1D0F814321343C0F81432096A01299E
:101F20000CD010E0D0F804329343C0F80432EEE74E
:101F3000D0F814329343C0F81432EFE7D0F81C12F3
:101F40001143C0F81C12D0F8001221F00101C0F8B2
:101F5000001200207047000000640040704710B479
:101F600090F820C0BCF1010F09D0BCF1020F06D0DF
:101F7000416A41F48021416210BC0120704739B1AF
:101F8000D0F800C0DCF810C01CF0030F7DD006E0D4
:101F9000D0F800C0DCF80CC01CF0030F7BD04FF46D
:101FA000D87C04680CEB011C54F80C4004F00404C9
:101FB0009460002C7DD0046854F80C40E408546010
:101FC000046854F80CC00CF0020CC2F80CC04FF4BA
:101FD000DA7C04680CEB011C54F80C4004F00F048C
:101FE0001461046854F80C40C4F307249461046835
:101FF00054F80CC04FEA1C4CC2F814C04FF4DC7209
:10200000D0F800C002EB01125CF802C083F800C0F7
:10201000D0F800C05CF802C04FEA1C2C83F801C065
:10202000D0F800C05CF802C04FEA1C4C83F802C034
:10203000D0F800C05CF80220120EDA704FF4DE72A5
:10204000D0F800C002EB01125CF802C083F804C0B3
:10205000D0F800C05CF802C04FEA1C2C83F805C021
:10206000D0F800C05CF802C04FEA1C4C83F806C0F0
:10207000D0F800C05CF80220120EDA71F9B10068E5
:10208000016941F02001016102E00BE003E010E092
:1020900010BC00207047416A41F40011416210BC3D
:1020A00001207047416A41F40011416210BC0120D7
:1020B0007047046854F80C40640D146080E70068B1
:1020C000C16841F02001C160DEE72DE9F05F0546FF
:1020D000002428684669D0F804908768D0F80CA0DE
:1020E000D0F810B0D0F8188016F0010F54D017F0C7
:1020F000010F17D00121816017F0020F03D028468D
:1021000000F0CCFA0EE017F0040F02D04FF4006498
:1021100008E017F0080F02D04FF4805402E0284680
:1021200000F0BBFA17F4807F19D029684FF4807053
:10213000886017F4007F03D0284600F0B1FA0EE063
:1021400017F4806F02D044F4005408E017F4006FD5
:1021500002D044F4804402E0284600F0A0FA17F4CC
:10216000803F19D029684FF48030886017F4003F11
:1021700003D0284600F096FA0EE017F4802F02D024
:1021800044F4004408E017F4002F02D044F48034F3
:1021900002E0284600F085FA16F0080F07D01AF082
:1021A000100F04D044F4007429681020C86016F0A1
:1021B000040F4FF0080707D01AF0080F04D0286862
:1021C000C760284600F000FA16F0020F07D0286812
:1021D000C06810F0030F02D0284600F0F7F916F09F
:1021E000400F07D01BF0100F04D044F4806429681E
:1021F0001020086116F0200F07D01BF0080F04D044
:1022000028680761284600F013FA16F0100F07D06F
:102210002868006910F0030F02D0284600F009FA80
:1022200016F4003F08D019F0100F05D029681020CF
:102230004860284600F0FEF916F4803F07D019F0F8
:10224000080F04D028684760284600F02CFA16F4DE
:10225000004F4AD019F0040F44D016F4807F04D008
:1022600018F0010F01D044F0010416F4007F04D0EF
:1022700018F0020F01D044F0020416F4806F04D06D
:1022800018F0040F01D044F0040416F4006F29D0B4
:1022900018F0700F26D008F07000402815D006DC2A
:1022A000102809D020280AD0302816D10AE050285A
:1022B0000ED0602811D10EE044F008040DE044F087
:1022C00010040AE044F0200407E044F0400404E075
:1022D00044F0800401E044F480742868816921F0AE
:1022E00070018161296804204860002C05D0686A6B
:1022F000204368622846FFF731FEBDE8F09F70B5C5
:102300000446002C03D094F8200010B104E0012012
:1023100070BD204600F0A8F82068016841F0010176
:10232000016000F0CDFC0546206840684FF00506CE
:1023300010F0010F11D100F0C3FC401B0A2807D98F
:10234000606A40F40030606284F82060012070BD53
:102350002068406810F0010FEDD02068016821F07E
:102360000201016000F0ACFC05462068406810F0F6
:10237000020F11D000F0A4FC401B0A2807D9606AA4
:1023800040F40030606284F82060012070BD206855
:10239000406810F0020FEDD1207E01283FD0206868
:1023A000016821F080010160607E01283DD0206835
:1023B000016821F040010160A07E01283BD0206827
:1023C000016821F020010160E07E012839D02068F9
:1023D000016841F010010160207F012837D020689A
:1023E000016821F008010160607F012835D0206874
:1023F000016821F004010160E168A0686269084396
:102400002169114308436168491E08432168C86176
:1024100000206062012084F82000002070BD206848
:10242000016841F080010160BEE72068016841F069
:1024300040010160C0E72068016841F020010160AF
:10244000C2E72068016821F010010160C4E720683C
:10245000016841F008010160C6E72068016841F0A9
:1024600004010160C8E7000010B586B004461421DD
:1024700001A8FEF704F94E492068884241D14D4831
:102480000068401C4B4908600846006801280FD1CD
:1024900000BF002000904848006840F000704649A6
:1024A00008600846006800F00070009000BF00BFA0
:1024B00000BF0020009040481038006840F008003D
:1024C0003D49103908600846006800F00800009097
:1024D00000BF00BF03200190022002900020039063
:1024E000032004900920059001A9344800F0D8FA8F
:1024F00000220621142000F0B9FF142000F0A8FFEC
:1025000054E02F492068884250D100BF002000903D
:102510002948006840F08060274908600846006844
:1025200000F08060009000BF00BF22480068401C9F
:10253000204908600846006801280FD100BF00202C
:1025400000901D48006840F000701B490860084674
:10255000006800F00070009000BF00BF00BF0020C6
:10256000009015481038006840F0020012491039F8
:1025700008600846006800F00200009000BF00BF3D
:10258000602001900220029000200390032004901C
:102590000920059001A90B4800F082FA00220621CB
:1025A000402000F063FF402000F052FF06B010BD55
:1025B000006400401C00002040380240000C024033
:1025C00000680040000402407047000010B58AB067
:1025D000044601AB03AA00212046FFF7C0FC1349C3
:1025E0002068884220D101AB03AA00212046FFF7D2
:1025F000B6FC0398A0F2411058B101280AD0C428B3
:1026000002D0C5280ED100E000BF0399491FC8B20F
:1026100000BF00BF0399A1F5A071C8B201A903F0E2
:1026200093F900E000BF00BF0AB010BD0064004095
:1026300070477047704770B5044694F82000012831
:1026400005D0606A40F400206062012070BD022065
:1026500084F820002068016821F00101016000F089
:102660002FFB05462068406810F0010F12D000F0E3
:1026700027FB401B0A2808D9606A40F400306062DA
:10268000052084F82000012070BD2068406810F00B
:10269000010FECD10020606270BD70477047704739
:1026A00070477047704770472DE9F0410446A66DAA
:1026B00000F006FB054694F835000027022806D0F6
:1026C0008020606584F834700120BDE8F0812068C6
:1026D000016821F0160101602068416921F0800144
:1026E0004161206C08B9A06C20B12068016821F01C
:1026F000080101602068016821F001010160206883
:10270000006810F0010F12D000F0DAFA401B052823
:1027100008D920206065032084F8350084F83470DF
:10272000BDE8F0812068006810F0010FECD194F84A
:102730005C003F2101FA00F0B060012084F8350010
:1027400084F834700020BDE8F08190F8351002293B
:1027500003D08021416501207047052180F83510A4
:102760000068016821F0010101600020704700004D
:102770002DE9F041044600F0A3FA0546DCB1022041
:1027800084F83500002684F834602068016821F060
:10279000010101602068006810F0010F13D000F003
:1027A0008FFA401B052809D920206065032084F892
:1027B0003500BDE8F0810120BDE8F08120680068A7
:1027C00010F0010FEBD121680868234A1040A3687C
:1027D0006268D4F810C01A43E36843EA0C031A4352
:1027E00063691A43A3691A43E3691A43236A1A43C4
:1027F0001043626A042A03D1236BE26A1A4310432E
:1028000008602068406920F00701606A40EA01051D
:10281000012704280ED1A06A0543E06A50B1204682
:10282000FFF7FEF830B14020606584F83570012074
:10283000BDE8F081206845612046FFF7D7F894F89D
:102840005C103F2202FA01F18160666584F8357000
:102850000020BDE8F08100003F8010F02DE9F0413C
:1028600004460F46DFF8988098F8180001280AD02F
:10287000012088F818004CF25030FFF717FA024692
:10288000100003D035E00220BDE8F0814FF0FF30AA
:10289000386020681B4E012815D0A568E0682844E0
:1028A000A84224D9217C2846FFF710F94CF2503079
:1028B000FFF7FCF90246306820F0FA0030601000A3
:1028C0000FD03D6013E0207C6168FFF753F94CF2B4
:1028D0005030FFF7EBF90246306820F0040030601A
:1028E00005E06D1CA168E0680844A842DAD8FFF74B
:1028F00015F9002088F818001046BDE8F0810000A6
:1029000030160020103C02400348016841F00041AD
:102910000160002070470000103C02402DE9F041AA
:102920000646884614461D461A4F387E012807D0B1
:10293000012038764CF25030FFF7B8F918B115E0A5
:102940000220BDE8F081AEB1012E18D0022E1BD0BE
:1029500022462B464046FFF731F94CF25030FFF744
:10296000A5F90D490A6822F001020A6000213976B2
:10297000BDE8F081E1B24046FFF710F9EDE7A1B202
:102980004046FFF735F9E8E721464046FFF742F9B0
:10299000E3E7000030160020103C02400020084908
:1029A0000A6812F0004F09D0074A064B1360074B24
:1029B0001360096811F0004F00D00120704700003B
:1029C000103C024023016745043C0240AB89EFCD37
:1029D00010B50446102C14D108200AF011FC22482E
:1029E000007840F00100204908702048007840F04D
:1029F00001001E4908701E480078A0B30BF038F89B
:102A000031E0202C0ED107200AF0FAFB194800789B
:102A100040F00100174908701548007818B30BF012
:102A200027F820E0082C09D109200AF0E9FB124818
:102A3000007840F001001049087014E0012C12D118
:102A40000DF0DEFF01280ED00C490D4800680DF096
:102A5000F5FA0A48006830B120070A490860BFF358
:102A60004F8FBFF36F8F10BDC6000020C70000203E
:102A7000C9000020C5000020C8000020440100203B
:102A8000A000002004ED00E010B504490A680242ED
:102A900002D00860FFF79CFF10BD0000143C01400D
:102AA0002DE9F84F0022DFF8FCA1DFF8F4914FF098
:102AB000010E03274FF00F08AAF1040B0EFA02FCD7
:102AC0000B6803EA0C0363457ED10C7904F0030420
:102AD000012C01D0022C14D18568540007FA04F6A9
:102AE000B543CE6806FA04F42C438460446824EAB3
:102AF0000C0C0C79C4F30014944044EA0C0CC0F89C
:102B000004C0D1F804C037EA0C0C0CD0C4684FEAFA
:102B1000420C07FA0CF5AC438D6805FA0CFC4CEA44
:102B2000040CC0F80CC091F804C00CF0030CBCF10C
:102B3000020F12D14FEAD20C00EB8C04256A4FEA47
:102B4000427C4FEADC6C08FA0CF6B5430E6906FAD3
:102B50000CFC4CEA050CC4F820C004684FEA420C97
:102B600007FA0CF5AC430D7905F0030505FA0CFCEA
:102B70004CEA040CC0F800C0D1F804C01CF4403F7B
:102B80006FD0D9F800C04CF4804CC9F800C0D9F817
:102B900000C00CF4804CCDF800C022F0030C0CF106
:102BA000804505F59835D5F808C89407240F08FA2C
:102BB00004F62CEA0606A0F1804CBCF5003C56D089
:102BC000BCF5806C56D000E04BE0BCF5806C54D076
:102BD000BCF5806C54D0BCF5806C54D0BCF5806CD6
:102BE00054D0BCF5806C54D0BCF5806C54D04FF000
:102BF000080C0CFA04FC4CEA060CC5F808C8DAF814
:102C000000C02CEA030C4C6814F4801F01D04CEA7D
:102C1000030CCAF800C0244CD4F800C02CEA030C02
:102C20004D6815F4001F01D04CEA030CC4F800C035
:102C3000DBF800C02CEA030C4C6814F4003F01D010
:102C40004CEA030CCBF800C0184CD4F800C02CEAB6
:102C5000030C4D6815F4803F01D04CEA030CC4F816
:102C600000C0521C102AFFF429AFBDE8F88F4FF0C6
:102C7000000CBEE74FF0010CBBE74FF0020CB8E7C9
:102C80004FF0030CB5E74FF0040CB2E74FF0050C22
:102C9000AFE74FF0060CACE74FF0070CA9E70000D8
:102CA00044380240083C01400C3C0140003C0140DB
:102CB000002A01D0816170470904816170470000DA
:102CC0000148806870470000A001002070B50446EC
:102CD000002C04D094F83D00002510B106E001203E
:102CE00070BD84F83C50204600F0E0FA242084F8BF
:102CF0003D002068016821F0010101602068016841
:102D000041F4004101602068016821F40041016044
:102D100000F074FD544B6168994203D853498842CE
:102D200003D304E05249884201D2012070BD5149C9
:102D3000B0FBF1F12268D2F804C02CF03F0C4CEA51
:102D4000010CC2F804C062689A4201D84A1C07E02C
:102D50004FF4967251434FF47A72B1FBF2F14A1C70
:102D60002168D1F820C02CF03F0C42EA0C020A6224
:102D70006168994210D84900401EB0FBF1F2521C24
:102D8000C2F30B02042A01D2042026E0B0FBF1F0CA
:102D9000401CC0F30B0020E0A268002A50D001EBD9
:102DA000C10303EB0113A0F1010CBCFBF3F35B1CAB
:102DB00043F480431B051B0D4AD0002A4AD001EB87
:102DC000C10202EB0111401EB0FBF1F0401CC0F348
:102DD0000B0040F4804040F400402168CA6922F0B2
:102DE000FF0222F44F421043C861216AE0690143A7
:102DF0002068026822F0C00211430160E168206986
:102E000001432068826822F0FF0222F4034211434A
:102E10008160A169606901432068C26822F0FF02F5
:102E20001143C1602068016841F00101016025641F
:102E3000202084F83D00256384F83E50002070BDBA
:102E400001EB4103A0F1010CBCFBF3F35B1CB1E708
:102E50000120C2E701EB4101401EB0FBF1F0401C34
:102E6000C0F30B00B7E70000A086010080841E00BD
:102E700000093D0040420F002DE9FF4F83B004469A
:102E80008A469346DDF84490DDF84080129EFFF7B5
:102E900017FF054694F83D00202803D007B0022014
:102EA000BDE8F08F19230122A0492046009502F0C9
:102EB00011FA18B107B00220BDE8F08F94F83C0079
:102EC000012808D0012084F83C002068016811F036
:102ED000010F04D007E007B00220BDE8F08F0168C1
:102EE00041F0010101602068016821F40061016086
:102EF000222084F83D00402084F83E00002727640B
:102F0000C4F82480A4F82A90608D20858848E06267
:102F1000019500965A4651462046069B02F09AF8C3
:102F200018B107B00120BDE8F08F208D10B3012843
:102F300029D0022835D02068416980690290208D0F
:102F4000002800F0E880DFF8EC81208D032800F2F3
:102F5000B780012834D002284AD0334600224146A7
:102F60002046009502F0B6F900286CD007B0012089
:102F7000BDE8F08F2068416981690291016841F4E0
:102F800000710160DBE72068016821F48061016065
:102F90002068416981690291016841F40071016012
:102FA000CDE72068016821F4806101602068016834
:102FB00041F4006101602068416980690290BEE7C8
:102FC0002A463146204602F046FA18B107B00120E1
:102FD000BDE8F08F20680069616A0870606A401C73
:102FE0006062208D401E2085608D401E60858EE0D1
:102FF0003346002241462046009502F06BF918B195
:1030000007B00120BDE8F08F2068016841F400712D
:10301000016020680069616A0870606A401C606233
:10302000218D491E2185618D491E618521680969AF
:103030000170606A401C6062208D401E2085608D9A
:10304000401E608563E02068016821F480610160B2
:1030500020680069616A0870606A401C6062208DA7
:10306000401E2085608D401E60853346002241460B
:103070002046009502F02EF918B107B00120BDE8F6
:10308000F08F2068016841F40071016020680069D8
:10309000616A0870606A401C6062218D491E21854A
:1030A000618D491E6185216809690170606A401C53
:1030B0006062208D401E2085608D401E608526E068
:1030C0002A463146204602F0C6F918B107B0012061
:1030D000BDE8F08F20680069616A0870606A401C72
:1030E0006062218D491E2185618D491E618522689E
:1030F000516911F0040F0AD011690170606A401C17
:103100006062208D401E2085608D401E6085208D70
:1031100000287FF41AAF202084F83D0084F83E7028
:1031200084F83C7007B00020BDE8F08F020010006A
:103130000000FFFF040001002DE9FF4F83B00446AB
:103140008A469346DDF84490DDF84080129EFFF7F2
:10315000B7FD054694F83D00202803D007B00220B3
:10316000BDE8F08F192301224E492046009502F058
:10317000B1F818B107B00220BDE8F08F94F83C0018
:10318000012808D0012084F83C002068016811F073
:10319000010F04D007E007B00220BDE8F08F0168FE
:1031A00041F0010101602068016821F400610160C3
:1031B000212084F83D00402084F83E000027276449
:1031C000C4F82480A4F82A90608D20853648E062F7
:1031D000019500965A4651462046069B01F0E4FFB1
:1031E00018B107B00120BDE8F08F208D002836D03F
:1031F0002A463146204602F06CF958B1206C04286A
:1032000004D12068016841F40071016007B0012019
:10321000BDE8F08F606A216800780861606A00F19B
:10322000010CC4F824C0208D401E80B22085618D21
:10323000491E61852368596911F0040F0CD058B1FB
:103240009CF800001861606A401C6062208D401E7E
:103250002085608D401E6085208D0028C8D12A46BB
:103260003146204602F008F858B1206C042804D1F9
:103270002068016841F40071016007B00120BDE8D9
:10328000F08F2068016841F400710160202084F80B
:103290003D0084F83E7084F83C7007B00020BDE823
:1032A000F08F0000020010000000FFFF10B586B094
:1032B0000446142101A8FDF7E2F92A492068884252
:1032C0004DD100BF002000902748006840F0040066
:1032D000254908600846006800F00400009000BF1F
:1032E00000BF00BF002000900846006840F00100C9
:1032F00008600846006800F00100009000BF00BFB1
:1033000048150190122002900120039003200490A0
:103310000420059001A91548FFF7C2FB4FF4807007
:1033200001901220029001200390032004900420B9
:10333000059001A90E48FFF7B3FB00BF00200090E5
:1033400009481030006840F4000007491031086057
:103350000846006800F40000009000BF00BF06B0FF
:1033600010BD0000005C0040303802400008024000
:103370000000024002488168027811448160704771
:10338000A001002010B50B48016841F400710160F4
:10339000016841F480610160016841F4807101605D
:1033A000032000F097F80F2000F006F800F026F850
:1033B000002010BD003C024070B504460D4D4FF496
:1033C0007A712878B1FBF0F00B490968B1FBF0F095
:1033D00000F03EFF08B1012070BD102C07D2002282
:1033E0002146501E00F042F86C60002070BD0120A4
:1033F00070BD0000A00100202000002008B500BF23
:10340000002000901148006840F480400F49086097
:103410000846006800F48040009000BF00BF00BF75
:1034200000200090081F006840F08050091F0860CD
:103430000846006800F08050009000BF00BF0022E6
:103440000F21901E00F012F808BD00004438024021
:1034500000280ADB00F01F01012202FA01F14009F5
:10346000800000F1E020C0F80011704710B4184B44
:103470001B68C3F30223C3F1070CBCF1040F01D98D
:103480004FF0040C1C1D072C01D2002300E0DB1EB2
:10349000012404FA0CFCACF1010C0CEA0101994086
:1034A00004FA03F35B1E1A401143002806DB00F107
:1034B000E020090180F8001410BC704700F00F00F4
:1034C00000F1E020090180F8141D10BC70470000D5
:1034D0000CED00E000F00700064A11684FF6FF030C
:1034E000194041EA002040F0FD7040F0806010601B
:1034F000704700000CED00E02DE9F84304464FF062
:10350000010820784FF0000710F0050F33D0DFF8E6
:103510004491C9F86870FFF7D3FB06464E4D286802
:1035200010F0006F0BD0FFF7CBFB801B022802D9F5
:103530000320BDE8F883286810F0006FF3D16068BD
:10354000217A800140EA017044490860C9F8688026
:10355000FFF7B6FB0646286810F0006F0BD1FFF7A7
:10356000AFFB801B022802D90320BDE8F88328683E
:1035700010F0006FF3D0207810F0020F5CD03848C4
:10358000016841F080510160006800F080500090B7
:10359000344D286840F480702860FFF791FB0646A0
:1035A000286810F4807F0BD1FFF78AFB801B02286C
:1035B00002D90320BDE8F883286810F4807FF3D097
:1035C000294D286800F4407028B3A18901F44071A6
:1035D000814220D0286820F440702449C1F800803E
:1035E0000F602860286810F0010F14D0FFF768FB07
:1035F0000646286810F0020F0DD141F28837FFF718
:103600005FFB801BB84202D90320BDE8F88328681D
:1036100010F0020FF3D0E0684FF4407131EA00027D
:1036200013490CD0086820F4F81008602868A189B4
:10363000C1F30B01084328600020BDE8F8830A6845
:1036400020F4407022F4F81220F07040104308601B
:10365000ECE7000000004742003802408438024096
:10366000403802400070004070380240400E47422F
:10367000083802402DE9F04704460D46002C13D0CF
:10368000DFF85491D9F80000EFB200F00700A8422B
:103690000DD289F80070D9F8000000F00700A842A8
:1036A00005D00120BDE8F0870120BDE8F087206843
:1036B0004A4E10F0020F14D010F0040F03D03068FF
:1036C00040F4E0503060207810F0080F03D03068EC
:1036D00040F4604030603068A16820F0F00008439A
:1036E0003060207810F0010F3ED060683C4901281E
:1036F00008D002280DD003280BD0096811F0020F62
:1037000028D00AE0096811F4003F06D10120BDE885
:10371000F087096811F0007F19D0316821F00301AA
:1037200008433060FFF7CCFA80463068616800F0EB
:103730000C00B0EB810F17D041F2883AFFF7C0FAC6
:10374000A0EB0800504508D90320BDE8F087012010
:10375000BDE8F0870120BDE8F0873068616800F0BF
:103760000C00B0EB810FE9D1D9F8000000F00700A0
:10377000A8420AD989F80070D9F8000000F00700C3
:10378000A84202D00120BDE8F087207810F0040F95
:1037900005D03068E16820F4E050084330602078BC
:1037A00010F0080F06D03068216920F4604040EA2C
:1037B000C100306000F042F831680A4AC1F30311D9
:1037C000515CC8400849086008480068FFF7F4FDEC
:1037D0000020BDE8F0870000003C024008380240AD
:1037E00000380240E829010820000020A401002040
:1037F00001480068704700002000002000B5FFF776
:10380000F7FF04490968044AC1F38221515CC840AA
:1038100000BD000008380240F829010800B5FFF794
:10382000E7FF04490968044AC1F34231515CC840CA
:1038300000BD000008380240F829010810B51748FB
:10384000006810F00C01164816D0164B042912D04F
:10385000082911D1144C216801F03F02216811F4AC
:10386000800F0AD02068C0F38810A0FB030100235A
:10387000FCF7F0FD09E0184610BD21680023C1F3F4
:103880008811A1FB0001FCF7E5FD2168C1F30141AE
:10389000491C4900B0FBF1F010BD0000083802409F
:1038A0000024F400001BB700043802402DE9F84F53
:1038B0000446002C12D02078FB4E10F0010FA6F128
:1038C000040563D0301D016801F00C0104290CD0FF
:1038D000006800F00C00082803D010E00120BDE8CB
:1038E000F88F306810F4800F09D0286810F4003F7A
:1038F0004CD06068002849D10120BDE8F88F60688D
:10390000B0F5803F14D0B0F5A02F16D0286820F471
:1039100080302860286820F480202860606810B318
:10392000FFF7CEF90746286810F4003F0ED02DE0CF
:10393000286840F480302860F0E7286840F4802050
:103940002860286840F480302860E7E7FFF7B8F97E
:10395000C01B642802D90320BDE8F88F286810F442
:10396000003FF3D012E0FFF7ABF90746286810F4E8
:10397000003F0BD0FFF7A4F9C01B642802D9032035
:10398000BDE8F88F286810F4003FF3D12078C74FC6
:1039900010F0020F4FF0000957D0C548016811F030
:1039A0000C0F14D0006800F00C00082803D1306818
:1039B00010F4800F0BD0E06880B301203860FFF76F
:1039C0007FF98046286810F0020F12D01EE02868A8
:1039D00010F0020F05D0E068012802D00120BDE8F8
:1039E000F88F2868216920F0F80040EAC1002860BB
:1039F0002BE0FFF765F9A0EB0800022802D90320AD
:103A0000BDE8F88F286810F0020FF2D0286821690D
:103A100020F0F80040EAC100286016E0FFE7C7F890
:103A20000090FFF74DF98046286810F0020F0CD087
:103A3000FFF746F9A0EB0800022802D90320BDE8F1
:103A4000F88F286810F0020FF2D1207810F0080FDC
:103A500035D09848DFF860A26169C1B101210160E9
:103A6000FFF72EF98046DAF8000010F0020F26D199
:103A7000FFF726F9A0EB0800022802D90320BDE8D1
:103A8000F88FDAF8000010F0020FF1D017E0C0F85C
:103A90000090FFF715F98046DAF8000010F0020FE9
:103AA0000DD0FFF70DF9A0EB0800022802D9032082
:103AB000BDE8F88FDAF8000010F0020FF1D120789D
:103AC00010F0040F71D04FF000087C48006810F02F
:103AD000805F0AD17948016841F080510160006837
:103AE00000F0805000904FF00108DFF8D4B1DBF80F
:103AF000000010F4807F1BD1DBF8000040F48070E0
:103B0000CBF80000FFF7DCF88246DBF8000010F489
:103B1000807F0DD1FFF7D4F8A0EB0A00022802D96C
:103B20000320BDE8F88FDBF8000010F4807FF1D0AF
:103B3000A068DFF890B1012818D005281DD0DBF867
:103B4000000020F00100CBF80000DBF8000020F0BE
:103B50000400CBF80000A06840B3FFF7B1F882463C
:103B6000DBF8000010F0020F14D03EE0DBF800009C
:103B700040F00100CBF80000EDE7DBF8000040F07A
:103B80000400CBF80000DBF8000040F00100CBF8A7
:103B90000000E0E7FFF794F8A0EB0A0141F288305B
:103BA000814204D90320BDE8F88F26E005E0DBF868
:103BB000000010F0020FEDD017E0FFF781F8824609
:103BC000DBF8000010F0020F0FD0FFF779F8A0EB40
:103BD0000A0141F28830814202D90320BDE8F88F02
:103BE000DBF8000010F0020FEFD1B8F1010F04D1A3
:103BF0003248016821F080510160A069F0B32C497E
:103C000009684FF0FF3801F00C01082966D002283E
:103C100010D0C7F86090FFF753F80446286810F0FA
:103C2000007F2BD0FFF74CF8001B022851D903204E
:103C3000BDE8F88FC7F86090FFF742F88146286822
:103C400010F0007F0CD0FFF73BF8A0EB0900022832
:103C500002D90320BDE8F88F286810F0007FF2D168
:103C6000216AE069A26A0843616A08EB520289018D
:103C700041EA0241084394F82C1000E055E040EA84
:103C80000160306001203866FFF71AF804462868A2
:103C900010F0007F49D1FFF713F8001B022813D959
:103CA0000320BDE8F88F00000438024000004742BE
:103CB00008380240800E47427438024040380240C3
:103CC0000070004070380240286810F0007FE2D099
:103CD0002BE0286810F0007FA4D126E0012822D034
:103CE0003068E26900F4800191421AD1226A00F042
:103CF0003F01914215D147F6C071626A0140B1EBB4
:103D0000821F0ED1A26A00F4403108EB5202B1EBDF
:103D1000024F06D194F82C1000F07060B0EB016FE8
:103D200003D00120BDE70120BBE70020B9E710B5B3
:103D30000446002C02D0607F10B106E0012010BDC7
:103D400000202077204600F03DF8022060772168AF
:103D5000CA204862216853204862204602F012FEC1
:103D60000146E1B92068816821F0400121F4E001B9
:103D700081602068816862686369114322691A431F
:103D8000114381602168E068086120680169228927
:103D900041EA02410161204602F018FE014659B98C
:103DA0002068026C22F4802202642068026CA369FD
:103DB0001A430264012060772268FF20506208469F
:103DC00010BD00001FB50446002000900190029035
:103DD00003900949206888420CD1022000900748CE
:103DE00003906846FFF788FB08B1FDF76DFE0120E0
:103DF000034908601FBD00000028004000031E00AA
:103E00003C0E474270B504462068C16821F0A0010D
:103E1000C160FEF755FF05462068C06810F0200F0E
:103E20000CD1FEF74DFF401BB0F57A7F01D903207E
:103E300070BD2068C06810F0200FF2D0002070BD67
:103E400070B50446002C09D0606A002540B1256198
:103E50006561A56294F8510040B10CE0012070BD8D
:103E60006068B0F5827FF4D0E561F2E784F85050E5
:103E7000204600F045F8022084F8510020680168CF
:103E800021F040010160A088218900F4827001F4D2
:103E900004410843A18901F400610843217C01F039
:103EA00002010843217D01F001010843218B01F447
:103EB00000710843217F01F03801084394F8201075
:103EC00001F080010843218D01F40051084321686D
:103ED0000860A169042000EA114094F8241001F060
:103EE00010010143206841602068C16921F400612C
:103EF000C1616565012084F85100002070BD00009B
:103F000010B586B00446142101A8FCF7B8FB4B4954
:103F1000206888427ED100BF002000904848006899
:103F200040F48050464908600846006800F480501C
:103F3000009000BF00BF00BF002000904048143830
:103F4000006840F002003E491439086008460068E5
:103F500000F00200009000BF00BF00BF00200090F2
:103F60000846006840F0010008600846006800F05C
:103F70000100009000BF00BF1820019002200290B5
:103F800001200390032004900520059001A92D48ED
:103F9000FEF786FD80200190022002900120039010
:103FA000032004900520059001A92748FEF778FD1D
:103FB0002648274908604FF0C06048600021244827
:103FC0008160C1604FF480610161002141618161C4
:103FD000C1614FF44031016200214162FEF7C8FB2C
:103FE00008B1FDF771FD00BF1948E064846300BFAC
:103FF00016481830174908604FF0C06048604021EB
:10400000144881600021C1604FF48061016100218A
:10401000416100E010E08161C1614FF40031016253
:1040200000214162FEF7A4FB08B1FDF74DFD00BF82
:104030000848A064846300BF06B010BD0030014092
:104040004438024000040240000002404064024044
:10405000FC0900205C0A00202DE9F84F04460A9E66
:104060008A4693461F4601254FF0000894F85000F9
:1040700001280ED0012084F85000FEF721FE814671
:1040800094F85100616801280ED0B1F5827F07D104
:1040900002E00220BDE8F88FA16809B9042803D026
:1040A0004FF0020800F0CBB8BAF1000F1DD0BBF101
:1040B000000F1AD0380018D094F85100042802D00C
:1040C000052084F8510000206065C4F838B0E78707
:1040D000A787C4F830A0E786A786206460642068BC
:1040E000016811F0400F03D006E04FF00108A6E090
:1040F000016841F040010160E068B0F5006F05D053
:104100006068002848D0012F46D07EE0606808B182
:10411000012F3AD1206B21680088C860206B801C79
:104120002063E08E401EE0862FE02068816811F059
:10413000020F0DD0E18E59B1012D09D1216B0988F3
:10414000C160206B801C2063E08E401EE08600254D
:104150002068816811F0010F0BD0E18F49B1C06870
:10416000A16B0880A06B801CA063E08F401EE087DD
:104170000125FEF7A5FDA0EB0900B04205D3B6F17D
:10418000FF3F02D04FF0030859E0E08E0028CCD169
:10419000E08F0028C9D13EE0206B216800780873C9
:1041A000206B401C2063E08E401EE0862DE02068DE
:1041B000816811F0020F0DD0E18E59B1012D09D1A6
:1041C000216B09780173206B401C2063E08E401E38
:1041D000E08600252068816811F0010F0BD0E18F87
:1041E00049B1C068A16B0870A06B401CA063E08F50
:1041F000401EE0870125FEF763FDA0EB0900B042F9
:1042000002D3B6F1FF3F11D186B1E08E0028CED1A6
:10421000E08F0028CBD14A463146204605F04AF8C7
:1042200038B14FF001082020606508E04FF0030826
:1042300005E0A06818B92068C16880680090012076
:1042400084F85100002084F850004046BDE8F88F03
:10425000401EB0F1807F01D3012070474FF0E02174
:104260004861044AF020107000208861072008612E
:104270000020704723ED00E030B490F83C20012A84
:1042800038D0012480F83C40022280F83D200268AA
:10429000D2F804C093682CF0700C0D6845EA0C0C41
:1042A000C2F804C00268A2F1804CBCF5803C14D076
:1042B000B2F1804F11D01CF57C4C0ED0BCF5806C57
:1042C0000BD0BCF5806C08D0BCF5784C05D0BCF5A3
:1042D000705C02D01CF5943C04D123F08003496843
:1042E0001943916080F83D40002180F83C1030BCBB
:1042F0000020704730BC0220704710B50446002CE7
:1043000003D094F83D0010B107E0012010BD00205B
:1043100084F83C00204600F01FF8022084F83D009D
:10432000211D206805F0FAF8012084F8460084F881
:104330003E0084F83F0084F8400084F8410084F88F
:10434000420084F8430084F8440084F8450084F86F
:104350003D00002010BD000008B5344A01689142BC
:104360000FD100BF002100913149096841F00201DD
:104370002F4A11601146096801F00201009100BF47
:1043800053E02C4A016891420FD100BF00210091F7
:104390002749096841F00401254A1160114609685E
:1043A00001F00401009100BF3FE0234A01689142FF
:1043B0000FD100BF002100911D49096841F008019B
:1043C0001B4A11601146096801F00801009100BF05
:1043D0002BE01A4A0168914211D100BF00210091DF
:1043E0001349091D096841F00201114A121D1160AB
:1043F0001146096801F00201009100BF15E0104A62
:104400000168914211D100BF002100910849091DA6
:10441000096841F40031064A121D1160114609680D
:1044200001F40031009100BF00BF08BD000400404E
:104430004038024000080040000C004000040140E9
:104440000044014090F83D10012901D0012070473F
:10445000022180F83D100068A0F18041B1F5803163
:104460001AD0B0F1804F17D011F57C4114D0B1F5BE
:10447000806111D0B1F580610ED0B1F578410BD0DB
:10448000B1F5705108D011F5943105D0016841F0B3
:104490000101016000207047816801F007010629D1
:1044A000F8D0016841F001010160F3E770B50446FE
:1044B000002594F83C00012818D0012684F83C60BF
:1044C000022084F83D002068826822F0770222F4FE
:1044D0007F4282600868502839D00EDC202854D0F2
:1044E00006DC002851D0102811D14EE0022070BD0A
:1044F00030284AD040280AD13DE0602831D07028C9
:104500000DD0B0F5805F03D0B0F5005F13D001256A
:1045100084F83D60002084F83C00284670BDCB68DC
:104520004A688968206805F064F82068816841F06D
:1045300077018160ECE7CB684A688968206805F0FC
:1045400058F82068816841F480418160E0E7CA68DA
:104550004968206805F03AF95021206805F054F8C0
:10456000D6E7CA684968206805F043F960212068E9
:1045700005F04AF8CCE7CA684968206805F026F9D2
:104580004021206805F040F8C2E722680146104645
:1045900005F03AF8BCE7000010B586B004461421D7
:1045A00001A8FCF76CF858492068884224D100BF64
:1045B000002000905548006840F00400534908600E
:1045C0000846006800F00400009000BF00BF881596
:1045D0000190022002900120039002200490059097
:1045E00001A94B48FEF75CFA4A48FFF72BFF082168
:1045F000484800F03FF984E047492068884225D1C7
:1046000000BF002000904148006840F008003F498A
:1046100008600846006800F00800009000BF00BF76
:104620004FF480400190022002900120039002206C
:104630000490059001A93948FEF732FA3848FFF78F
:1046400001FF0821364800F015F95AE03549206885
:1046500088422DD100BF002000902C48006840F017
:1046600080002A4908600846006800F08000009039
:1046700000BF00BF4FF4E0500190022002900120E3
:10468000039002200490059001A92748FEF708FA3C
:104690002648FFF7D7FE0021244800F0EBF804215C
:1046A000224800F0E7F80821204800F0E3F828E06D
:1046B0001F492068884224D100BF00200090134881
:1046C000006840F02000114908600846006800F0CA
:1046D0002000009000BF00BF402001900220029007
:1046E00001200390022004900320059001A91148A5
:1046F000FEF7D6F91048FFF7A5FE00210E4800F09E
:10470000B9F806B010BD0000000400403038024087
:1047100000080240BC0A002000080040000C0240D3
:10472000040B0020000C0040001C02404C0B002039
:104730000044014000140240DC0B002070B5044628
:104740000D46002694F83C0001280FD0012084F883
:104750003C006AB1042A1FD0082A32D00C2A44D067
:104760000126002084F83C00304670BD022070BD58
:104770002946206804F050FF2068816941F0080153
:1047800081612068816921F004018161206881696B
:104790002A6911438161E4E72946206804F074FF27
:1047A0002068816941F4006181612068816921F498
:1047B00080618161206881692A6941EA0221816101
:1047C000CFE72946206804F09BFF2068C16941F0CB
:1047D0000801C1612068C16921F00401C16120683C
:1047E000C1692A691143C161BBE72946206804F009
:1047F000C3FF2068C16941F40061C1612068C169DB
:1048000021F48061C1612068C1692A6941EA0221FD
:10481000C161A6E710B50446002C03D094F83D0012
:1048200010B107E0012010BD002084F83C002046B4
:1048300000F01EF8022084F83D00211D206804F0DD
:104840006DFE012084F8460084F83E0084F83F00A5
:1048500084F8400084F8410084F8420084F8430062
:1048600084F8440084F8450084F83D00002010BD21
:104870007047000010B50446002909D004290AD069
:1048800008290BD094F8410001280AD0012010BD5E
:1048900094F83E00F8E794F83F00F5E794F84000FC
:1048A000F2E7022099B304293FD0082940D084F8C8
:1048B00041000122206804F08DFE1F4A20681F4934
:1048C000904201D0884203D1436C43F400434364D7
:1048D000206890421CD0B0F1804F19D0A0F18042E6
:1048E000B2F5806214D0B2F5806211D0B2F5806268
:1048F0000ED088420CD0B2F59A3109D011F594311E
:1049000006D0016841F001010160002010BD09E0FE
:10491000816801F007010629F7D0016841F0010123
:104920000160F2E784F83E00C3E784F83F00C0E787
:1049300084F84000BDE70000000001400004014091
:104940002DE9F84F0446DDF828800F4615461E462F
:1049500094F83E00202802D00220BDE8F88FCFB1A5
:10496000C5B194F83C00012817D0012084F83C0020
:104970004FF0000AC4F840A0222184F83E102063C2
:10498000FEF79EF98146A585E585A068B0F5805FB4
:1049900006D007E00120BDE8F88F0220BDE8F88FBF
:1049A0002069C0B13D46002784F83CA0A6F800A0CD
:1049B000E08D4FF0200AE8B32068016811F0100F75
:1049C0000BD0016841680091318831B184F83EA074
:1049D0000020BDE8F88F0025E6E7016811F0200F00
:1049E00019D02DB1A168B1F5805F2ED031B107E0AB
:1049F0004068C0F308003880BF1C06E0216921B37D
:104A0000406800F07F0028706D1C3088401C3080AA
:104A1000E08D401EE085B8F1FF3F08D0FEF750F969
:104A2000A0EB0900404513D8B8F1000F10D0E08D7D
:104A3000002800E000E0BFD1A08DE18D401A308059
:104A400084F83EA00020BDE8F88F40682870DBE7BE
:104A500084F83EA00320BDE8F88F7047704700003F
:104A6000F8B5044622681068D168536900F00F0C4D
:104A7000BCF1000F0AD110F0200F07D011F0200F69
:104A800004D02046BDE8F84004F001BF0025BCF189
:104A9000000F74D003F0010C01F490765CEA060676
:104AA0006DD010F0010F06D011F4807F03D0226C7E
:104AB00042F00102226410F0040F06D013F0010F3F
:104AC00003D0226C42F00202226410F0020F06D0E2
:104AD00013F0010F03D0226C42F00402226410F0A4
:104AE000080F08D001F0200252EA0C0203D0226C19
:104AF00042F008022264226C002A35D010F0200F08
:104B000005D011F0200F02D0204604F0C0FE20682E
:104B10004069C0F38010216C01F00801084329D0DE
:104B2000204604F080FE2068406910F0400F1CD041
:104B30002068143050E8001F21F0400140E80012C6
:104B4000002AF5D1A06B60B15C490165A06BFDF74F
:104B5000FCFD002808D0A06B016D01B0BDE8F0405D
:104B600008472046FFF77AFFF8BD2046FFF776FF9B
:104B7000F8BD04E02046FFF771FF2564F8BD236B04
:104B8000012B7DD110F0100F7AD011F0100F7ED0D4
:104B900010685068009050694FF0200310F0400FEB
:104BA00043D0A16B0868406880B20028E6D0A28D8F
:104BB0008242E3D9E085C869B0F5807F2DD02068B6
:104BC0000C3050E8001F21F4807140E80012002AE8
:104BD000F5D12068143050E8001F21F0010140E8B1
:104BE0000012002AF5D12068143050E8001F21F08F
:104BF000400140E80012002AF5D184F83E302563D8
:104C000020680C3050E8001F21F0100140E800122D
:104C1000002AF5D1A06BFDF747FDA08DE18D401A6C
:104C200081B22046FFF719FFF8BDA08DE18D401A33
:104C300081B2E08D0028F7D00029F5D020680C3033
:104C400050E8002F22F4907240E8002CBCF1000FD5
:104C5000F4D12068143050E8002F22F0010240E81F
:104C6000002CBCF1000FF4D184F83E30256320689D
:104C70000C3050E8002F22F0100240E8002300E042
:104C800005E0002BF3D12046FFF7E7FEF8BD10F05A
:104C9000800F07D011F0800F04D02046BDE8F84007
:104CA00004F0D6BE10F0400FF0D011F0400FEDD060
:104CB0002046BDE8F84004F0DDBD0000179800086C
:104CC00070B50446002C04D094F83D00002510B1C6
:104CD00006E0012070BD84F83C50204600F022F828
:104CE000242084F83D002068C16821F40051C1608F
:104CF000204604F031FE2068016921F490410161F1
:104D00002068416921F02A0141612068C16841F4AD
:104D10000051C1602564202084F83D0084F83E00E5
:104D2000002070BD10B586B00446142101A8FBF721
:104D3000A6FC7D492068884256D100BF0020009023
:104D40007A48006840F0100078490860084600681A
:104D500000F01000009000BF00BF00BF00200090D6
:104D600072481438006840F0020070491439086035
:104D70000846006800F00200009000BF00BF00BFBE
:104D8000002000900846006840F0010008600846D6
:104D9000006800F00100009000BF00BF802001907B
:104DA0000220029000200390032004900720059029
:104DB00001A95F48FDF774FE4FF4007001900220D6
:104DC000029000200390032004900720059001A981
:104DD0005848FDF765FE002205212520FEF746FB19
:104DE0002520FEF735FB9CE05349206888425BD1C3
:104DF00000BF002000904D48001F006840F4802054
:104E00004A49091F08600846006800F480200090A5
:104E100000BF00BF00BF0020009044481438006865
:104E200040F004004149143908600846006800F069
:104E30000400009000BF00BF4FF4406001900220CA
:104E4000029000200390032004900720059001A900
:104E50003A48FDF725FE3A483A4908604FF00060AD
:104E60004860002137488160C1604FF48061016172
:104E7000002141618161C1614FF400310162002173
:104E80004162FDF775FC08B1FCF71EFE00BF2D481E
:104E9000A063846300BF002204212720FEF7E6FA06
:104EA0002720FEF7D5FA3CE027492068884238D110
:104EB00000BF002000901D48006840F020001B4902
:104EC00008600846006800F02000009000BF00BFA6
:104ED00000BF0020009015481438006840F04000E2
:104EE0001249143908600846006800F0400000903C
:104EF00000BF00BF4FF484400190022002900020C8
:104F00000390032004900820059001A90F48FDF7A5
:104F1000C7FD002205214720FEF7A8FA4720FEF72B
:104F200097FA06B010BD000000100140443802405E
:104F30000004024000000240004800400008024017
:104F400028600240F00C00200014014000180240CC
:104F500070472DE9F84304460E4615461F4694F85F
:104F60003D00202802D00220BDE8F883C6B1BDB1C3
:104F700094F83C00012816D0012084F83C004FF042
:104F80000009C4F84090212084F83D00FDF798FE08
:104F90008046A584E584A068B0F5805F06D007E070
:104FA0000120BDE8F8830220BDE8F883206980B1C4
:104FB0003546002684F83C90E08CB8B14346002288
:104FC00080212046009704F072FD20B10320BDE847
:104FD000F8830025EEE7A5B12168287848606D1CAC
:104FE000E08C401EE084E08C0028E7D1434600229C
:104FF00040212046009704F05AFD48B10320BDE847
:10500000F88330882168C0F308004860B61CE7E7E1
:10501000202084F83D000020BDE8F883704700BFE1
:10502000FEE701684A6912F4806F11D06FF4806264
:105030004A6100210163202280F83D2080F83E1063
:10504000026C42F00402026480F83C1001207047B8
:10505000002070472DE9F84F0446DDF828A00B9D8D
:105060000F4690461E462068016841F48061016049
:105070002068016841F480710160534600224FF0BE
:1050800001112046009500F025F94FF4007948B150
:105090002068006810F4807F01D0C4F8409003209D
:1050A000BDE8F88F216807F0FE000861DFF8F4B072
:1050B0002B4652465946204600F066F910B10120B1
:1050C000BDE8F88F20684169806900902A46514602
:1050D000204600F0FEF950B1206C042804D120686D
:1050E000016841F4007101600120BDE8F88F30468D
:1050F00008F0FF0601280DD021684FEA182008614A
:105100002A465146204600F0E4F970B1206C04288C
:1051100003D007E02068066109E02068016841F4D7
:10512000007101600120BDE8F88F206806612A4601
:105130005146204600F0CDF950B1206C042804D12E
:105140002068016841F4007101600120BDE8F88F1A
:105150002068016841F480710160534600224FF0DD
:1051600001112046009500F0B5F848B120680068AC
:1051700010F4807F01D0C4F840900320BDE8F88F80
:105180002168F8B240F0010008612B4652465946AA
:10519000204600F0F9F810B10120BDE8F88F00209A
:1051A000BDE8F88F020001002DE9F8430446DDF860
:1051B0002090099F0D46164698462068016841F4E4
:1051C000807101604B4600224FF00111204600978C
:1051D00000F080F850B12068006810F4807F02D0A1
:1051E0004FF4007020640320BDE8F883216805F0C7
:1051F000FE0008613B464A461E49204600F0C4F8BE
:1052000010B10120BDE8F8832068416980690090F1
:105210003A464946204600F05CF950B1206C04281B
:1052200004D12068016841F4007101600120BDE8EB
:10523000F883F5B2B8F1010F0CD02168300A08618B
:105240003A464946204600F044F970B1206C0428E3
:1052500003D007E02068056109E02068016841F497
:10526000007101600120BDE8F8832068056100201D
:10527000BDE8F8830200010070B504460D461646ED
:105280002068406910F0040F13D12046FFF7C9FED3
:1052900008B1012070BDB5F1FF3F05D0FDF710FD4D
:1052A000801BA84207D835B12068406910F0040F70
:1052B000EBD0002070BD00202063202184F83D1039
:1052C00084F83E00216C41F02001216484F83C0008
:1052D000012070BD2DE9F0470446DDF820900D4611
:1052E00017461E46C5F307482068B8F1010F22D0C3
:1052F000806925EA00000004000C26D00020B84296
:1053000016D1B6F1FF3F06D0FDF7DAFCA0EB09009D
:10531000B0421CD8DEB1B8F1010F28D020688069F6
:1053200025EA00000004000C2CD00020B842E8D090
:105330000020BDE8F087406925EA00000004000C69
:1053400001D00020DBE70120D9E70120D7E70020CA
:105350002063202184F83D1084F83E00216C41F048
:105360002001216484F83C000120BDE8F08720681A
:10537000406925EA00000004000C01D00020D5E7B8
:105380000120D3E70120D1E72DE9F04704460D467F
:1053900016461F46C5F307482068B8F1010F26D00E
:1053A000806925EA00000004000C3AD04FF00009A3
:1053B0004FF0200A2068406910F4806F1ED02068EA
:1053C000016841F40071016021686FF480604861F8
:1053D000C4F8309084F83DA084F83E90206C40F0F2
:1053E0000400206484F83C900120BDE8F087406907
:1053F00025EA00000004000C13D0D7E7B6F1FF3F08
:1054000005D0FDF75DFCC01BB0420DD866B1B8F108
:10541000010F18D02068806925EA00000004000C04
:10542000C8D10020BDE8F087C4F8309084F83DA0D2
:1054300084F83E90206C40F02000206484F83C907A
:105440000120BDE8F0872068406925EA00000004DB
:10545000000CAFD1E5E72DE9F04104460D461646B4
:105460002068406910F0400F22D100274FF020083B
:105470002068406910F0100F0FD021686FF0100005
:105480004861276384F83D8084F83E70206C206476
:1054900084F83C700120BDE8F081FDF711FC801B11
:1054A000A84208D83DB12068406910F0400FDFD015
:1054B0000020BDE8F081276384F83D8084F83E70C9
:1054C000206C40F02000206484F83C700120BDE88E
:1054D000F08170B504460D4616462068406910F00C
:1054E000800F13D12046FFF79CFD08B1012070BD4D
:1054F000B5F1FF3F05D0FDF7E3FB801BA84207D8BD
:1055000035B12068406910F0800FEBD0002070BDED
:1055100000202063202184F83D1084F83E00216C97
:1055200041F02001216484F83C00012070BD00009E
:1055300070B504460D461646308888B9184890ED77
:10554000000A184880ED000A154890ED010A154838
:1055500080ED010A124890ED020A124880ED020A1D
:10556000324611490F4808F0C3F90E4890ED000A81
:1055700085ED000A90ED010A85ED010A90ED020A21
:1055800085ED020AB7EE000A84ED000AB7EE000AC4
:1055900084ED010AB7EE000A84ED020A70BD000036
:1055A000181100200C110020D011002091ED000AEC
:1055B0000E4A82ED000A91ED010A82ED010A91ED99
:1055C000020A82ED020A92ED000A094A82ED000AFF
:1055D000064A92ED010A064A82ED010A034A92ED5B
:1055E000020A034A82ED020A7047000018110020E7
:1055F0000C11002008B5072009F052FC02E06420DD
:1056000009F04EFCFBF768FC0028F8D102E06420AA
:1056100009F046FC08F088FB0028F8D19C4AA2F16A
:105620000C01101DFBF772FC9A48994B103B9A4AEB
:105630009A4900909A4808F085F9DFED9A0A9FEDA3
:105640009A0A9A4A00219A4800F03CFF924A9349EC
:105650009848FBF783F9914890ED000A964880ED51
:10566000000A964880ED000A954880ED000A8B48B4
:1056700090ED010A904880ED010A904880ED010A02
:105680008F4880ED010A854890ED020A8A4880ED36
:10569000020A8A4880ED020A894880ED020A002049
:1056A00009F03AFC04460BF065F9864908601021C0
:1056B0008548C161FEF7C4FB08B1FCF705FA082272
:1056C0008249834803F036FD012082490870DEE0FC
:1056D00000BF4FF0FF3101200AF0C0FA0128F8D1D5
:1056E0007D48007800F0080058B17B48007820F031
:1056F0000800794908706649091D7448401CFBF789
:10570000B7FB7648007800F0040078B17348007861
:1057100020F00400714908705D4A1032A2F11C01AA
:105720006F48FBF74FFB01206E4908606E48007818
:1057300000F0040088B16C48007820F004006A4949
:10574000087053496948FBF7CFFC51481038D0ED39
:10575000040AB0EE600A08F045FA4E484C4B103B84
:105760004D4A4E4900904E4808F0ECF8534890EDF1
:10577000000A534880ED000A4F4890ED000A4F4858
:1057800080ED000A90ED000A5948D0ED000A20EEA5
:10579000200A4B48D0ED000A554890ED011A00EE62
:1057A000810A3E48D0ED000A514890ED021A00EE01
:1057B000810A414880ED000A404890ED010A4048C6
:1057C00080ED010A3C4890ED010A3C4880ED010A59
:1057D00090ED010A4648D0ED000A20EE200A384834
:1057E000D0ED010A424890ED011A00EE810A2B48E3
:1057F000D0ED010A3E4890ED021A00EE810A2E48D3
:1058000080ED010A2D4890ED020A2D4880ED020A34
:10581000294890ED020A294880ED020A90ED020A1B
:105820003348D0ED000A20EE200A2548D0ED020AC8
:105830002F4890ED011A00EE810A1848D0ED020AB7
:105840002B4890ED021A00EE810A1B4880ED020AF7
:10585000114B024612499FED270A1648FBF7EAF959
:10586000254B1A1F111F134807F00EFF234800781D
:1058700000F001002149087048B10846007820F086
:10588000010008700846007840F0020008701FE729
:10589000F81000203C110020E8110020DC1100204D
:1058A000D01100200080894500A08C45142A0108F1
:1058B00064110020F4110020C4110020B811002050
:1058C000AC110020A0000020A4090020A4000020AA
:1058D000AC000020C9000020C5000020C600002048
:1058E000DE1000203C010020C7000020BF00002087
:1058F000202A01086F12833A0C120020C8000020F1
:1059000030B589B005460C460020079008900690F7
:1059100005F5A070009000200290039008200490EC
:10592000A1208DF81C00E0B28DF82000200A8DF82F
:10593000210006AB07AA69460248FCF7F9F909B04D
:1059400030BD0000E008002070B52DED048B04464A
:105950000D462E78012C04D0022C02D0BDEC048B15
:1059600070BDA6F19A000D287AD2DFE800F0077921
:10597000217879797922232425262700687841B275
:10598000601E00EBC0004E4A02F82010E87829792A
:1059900040EA0121601E00EBC00002EB8000418064
:1059A000E979601E00EBC00002EB8000017258E054
:1059B00000BF00BF00BF00BF00BF00BF687841B29A
:1059C000601E00EBC0003E4A02F82010E87800029A
:1059D00000B2A978084300EE100AF8EEC00A9FED65
:1059E000391A80EE810ADFED380A20EE200A601EA7
:1059F00000EBC000114601EB800080ED030A28791E
:105A0000697940EA012001B2601E00EBC00002EBA0
:105A100080000182A879E97940EA0121601E00EB4B
:105A2000C00002EB80004183012C02D0022C13D174
:105A300008E0611E01EBC101214A02EB810007F081
:105A400027FF0AE0611E01EBC1011D4A02EB810044
:105A500007F036FF01E003E000BF00BF01E000E017
:105A600000BF00BFFDF72CF9611E01EBC101144A14
:105A700002EB81014861601E00EBC000114601EBA2
:105A800080004088D0B1611E01EBC10102EB8101B1
:105A900048880BF085FE41EC190B9FED0C0B53EC85
:105AA000102B0BF0CDFE41EC180B0BF091F9611EA1
:105AB00001EBC101024A02EB8101486000BF4DE7E2
:105AC000680E0020000000450000044200000000B5
:105AD0000000244010B58AB00446002008900990C8
